{
  "address": "0x4FC41A14f325f9C3ee62ecccFdc4fC8aFc199FA7",
  "abi": [
    {
      "inputs": [
        {
          "internalType": "uint256",
          "name": "_price",
          "type": "uint256"
        },
        {
          "internalType": "uint256",
          "name": "_maxTokensPerPurchase",
          "type": "uint256"
        },
        {
          "internalType": "address payable",
          "name": "_vault",
          "type": "address"
        },
        {
          "internalType": "contract Plines",
          "name": "_token",
          "type": "address"
        },
        {
          "internalType": "string",
          "name": "_presaleDAppURI",
          "type": "string"
        }
      ],
      "stateMutability": "nonpayable",
      "type": "constructor"
    },
    {
      "anonymous": false,
      "inputs": [
        {
          "indexed": true,
          "internalType": "address",
          "name": "from",
          "type": "address"
        },
        {
          "indexed": false,
          "internalType": "uint256",
          "name": "amount",
          "type": "uint256"
        }
      ],
      "name": "Buy",
      "type": "event"
    },
    {
      "inputs": [
        {
          "internalType": "uint256",
          "name": "_amount",
          "type": "uint256"
        },
        {
          "internalType": "string",
          "name": "_presaleDAppURI",
          "type": "string"
        }
      ],
      "name": "buy",
      "outputs": [],
      "stateMutability": "payable",
      "type": "function"
    },
    {
      "inputs": [
        {
          "internalType": "uint256",
          "name": "_amount",
          "type": "uint256"
        }
      ],
      "name": "getTotalPrice",
      "outputs": [
        {
          "internalType": "uint256",
          "name": "",
          "type": "uint256"
        }
      ],
      "stateMutability": "view",
      "type": "function"
    },
    {
      "inputs": [],
      "name": "maxTokensPerPurchase",
      "outputs": [
        {
          "internalType": "uint256",
          "name": "",
          "type": "uint256"
        }
      ],
      "stateMutability": "view",
      "type": "function"
    },
    {
      "inputs": [],
      "name": "presaleDAppURI",
      "outputs": [
        {
          "internalType": "string",
          "name": "",
          "type": "string"
        }
      ],
      "stateMutability": "view",
      "type": "function"
    },
    {
      "inputs": [],
      "name": "price",
      "outputs": [
        {
          "internalType": "uint256",
          "name": "",
          "type": "uint256"
        }
      ],
      "stateMutability": "view",
      "type": "function"
    },
    {
      "inputs": [],
      "name": "token",
      "outputs": [
        {
          "internalType": "contract Plines",
          "name": "",
          "type": "address"
        }
      ],
      "stateMutability": "view",
      "type": "function"
    },
    {
      "inputs": [],
      "name": "vault",
      "outputs": [
        {
          "internalType": "address payable",
          "name": "",
          "type": "address"
        }
      ],
      "stateMutability": "view",
      "type": "function"
    }
  ],
  "transactionHash": "0x3ee7eee0ff02af29379f60fe00acd3b889dda6d194b4cac6d6cd299516903e99",
  "args": [
    "50000000000000000",
    20,
    "0x02c3E903C27d7060615592084E4a6cE15AA5aD3F",
    "0xBfFB02f9cE661a4864e12cec32a98405C6433499",
    "https://presale.plines.io"
  ],
  "solcInputHash": "205138eda8ec960fe11ad3f3806d8561",
  "bytecode": "0x60806040523480156200001157600080fd5b506040516200098938038062000989833981016040819052620000349162000164565b60018590556002849055600380546001600160a01b038086166001600160a01b03199283161790925560048054928516929091169190911790558051620000839060009060208401906200008f565b505050505050620002be565b8280546200009d9062000281565b90600052602060002090601f016020900481019282620000c157600085556200010c565b82601f10620000dc57805160ff19168380011785556200010c565b828001600101855582156200010c579182015b828111156200010c578251825591602001919060010190620000ef565b506200011a9291506200011e565b5090565b5b808211156200011a57600081556001016200011f565b6001600160a01b03811681146200014b57600080fd5b50565b634e487b7160e01b600052604160045260246000fd5b600080600080600060a086880312156200017d57600080fd5b8551945060208087015194506040870151620001998162000135565b6060880151909450620001ac8162000135565b60808801519093506001600160401b0380821115620001ca57600080fd5b818901915089601f830112620001df57600080fd5b815181811115620001f457620001f46200014e565b604051601f8201601f19908116603f011681019083821181831017156200021f576200021f6200014e565b816040528281528c868487010111156200023857600080fd5b600093505b828410156200025c57848401860151818501870152928501926200023d565b828411156200026e5760008684830101525b8096505050505050509295509295909350565b600181811c908216806200029657607f821691505b60208210811415620002b857634e487b7160e01b600052602260045260246000fd5b50919050565b6106bb80620002ce6000396000f3fe6080604052600436106100705760003560e01c8063ca7dd3751161004e578063ca7dd375146100c9578063ef30a7fe146100e9578063fbfa77cf1461010b578063fc0c546a1461014357600080fd5b80635771520714610075578063a035b1fe1461009e578063b7dc3b18146100b4575b600080fd5b34801561008157600080fd5b5061008b60025481565b6040519081526020015b60405180910390f35b3480156100aa57600080fd5b5061008b60015481565b6100c76100c236600461042e565b610163565b005b3480156100d557600080fd5b5061008b6100e43660046104e9565b610374565b3480156100f557600080fd5b506100fe61038a565b6040516100959190610532565b34801561011757600080fd5b5060035461012b906001600160a01b031681565b6040516001600160a01b039091168152602001610095565b34801561014f57600080fd5b5060045461012b906001600160a01b031681565b806040516020016101749190610565565b60405160208183030381529060405280519060200120600060405160200161019c91906105bc565b60405160208183030381529060405280519060200120146101fb5760405162461bcd60e51b815260206004820152601460248201527357726f6e672070726573616c654441707055524960601b60448201526064015b60405180910390fd5b6002548211156102585760405162461bcd60e51b815260206004820152602260248201527f43616e206e6f7420627579203e206d6178416d6f756e74506572507572636861604482015261736560f01b60648201526084016101f2565b61026182610374565b341461029b5760405162461bcd60e51b81526020600482015260096024820152684241445f56414c554560b81b60448201526064016101f2565b60048054604051632cfe929360e21b81523392810192909252602482018490526001600160a01b03169063b3fa4a4c90604401600060405180830381600087803b1580156102e857600080fd5b505af11580156102fc573d6000803e3d6000fd5b50506003546040516001600160a01b0390911692503480156108fc029250906000818181858888f1935050505015801561033a573d6000803e3d6000fd5b5060405182815233907fe3d4187f6ca4248660cc0ac8b8056515bac4a8132be2eca31d6d0cc170722a7e9060200160405180910390a25050565b6000600154826103849190610658565b92915050565b6000805461039790610581565b80601f01602080910402602001604051908101604052809291908181526020018280546103c390610581565b80156104105780601f106103e557610100808354040283529160200191610410565b820191906000526020600020905b8154815290600101906020018083116103f357829003601f168201915b505050505081565b634e487b7160e01b600052604160045260246000fd5b6000806040838503121561044157600080fd5b82359150602083013567ffffffffffffffff8082111561046057600080fd5b818501915085601f83011261047457600080fd5b81358181111561048657610486610418565b604051601f8201601f19908116603f011681019083821181831017156104ae576104ae610418565b816040528281528860208487010111156104c757600080fd5b8260208601602083013760006020848301015280955050505050509250929050565b6000602082840312156104fb57600080fd5b5035919050565b60005b8381101561051d578181015183820152602001610505565b8381111561052c576000848401525b50505050565b6020815260008251806020840152610551816040850160208701610502565b601f01601f19169190910160400192915050565b60008251610577818460208701610502565b9190910192915050565b600181811c9082168061059557607f821691505b602082108114156105b657634e487b7160e01b600052602260045260246000fd5b50919050565b600080835481600182811c9150808316806105d857607f831692505b60208084108214156105f857634e487b7160e01b86526022600452602486fd5b81801561060c576001811461061d5761064a565b60ff1986168952848901965061064a565b60008a81526020902060005b868110156106425781548b820152908501908301610629565b505084890196505b509498975050505050505050565b600081600019048311821515161561068057634e487b7160e01b600052601160045260246000fd5b50029056fea2646970667358221220a9c020d36e1b6685e5498219a55aee9576d860210cc2e7e6506d3b08577f719164736f6c63430008090033",
  "devdoc": {
    "kind": "dev",
    "methods": {},
    "version": 1
  },
  "userdoc": {
    "kind": "user",
    "methods": {},
    "version": 1
  },
  "storageLayout": {
    "storage": [
      {
        "astId": 3226,
        "contract": "contracts/PlinesPresale.sol:PlinesPresale",
        "label": "presaleDAppURI",
        "offset": 0,
        "slot": "0",
        "type": "t_string_storage"
      },
      {
        "astId": 3228,
        "contract": "contracts/PlinesPresale.sol:PlinesPresale",
        "label": "price",
        "offset": 0,
        "slot": "1",
        "type": "t_uint256"
      },
      {
        "astId": 3230,
        "contract": "contracts/PlinesPresale.sol:PlinesPresale",
        "label": "maxTokensPerPurchase",
        "offset": 0,
        "slot": "2",
        "type": "t_uint256"
      },
      {
        "astId": 3232,
        "contract": "contracts/PlinesPresale.sol:PlinesPresale",
        "label": "vault",
        "offset": 0,
        "slot": "3",
        "type": "t_address_payable"
      },
      {
        "astId": 3235,
        "contract": "contracts/PlinesPresale.sol:PlinesPresale",
        "label": "token",
        "offset": 0,
        "slot": "4",
        "type": "t_contract(Plines)3221"
      }
    ],
    "types": {
      "t_address_payable": {
        "encoding": "inplace",
        "label": "address payable",
        "numberOfBytes": "20"
      },
      "t_contract(Plines)3221": {
        "encoding": "inplace",
        "label": "contract Plines",
        "numberOfBytes": "20"
      },
      "t_string_storage": {
        "encoding": "bytes",
        "label": "string",
        "numberOfBytes": "32"
      },
      "t_uint256": {
        "encoding": "inplace",
        "label": "uint256",
        "numberOfBytes": "32"
      }
    }
  }
}