{
  "address": "0x163774e8e7c63ab2222A39dBA77db418Ab920333",
  "abi": [
    {
      "anonymous": false,
      "inputs": [
        {
          "indexed": true,
          "internalType": "address",
          "name": "owner",
          "type": "address"
        },
        {
          "indexed": true,
          "internalType": "address",
          "name": "approved",
          "type": "address"
        },
        {
          "indexed": true,
          "internalType": "uint256",
          "name": "tokenId",
          "type": "uint256"
        }
      ],
      "name": "Approval",
      "type": "event"
    },
    {
      "anonymous": false,
      "inputs": [
        {
          "indexed": true,
          "internalType": "address",
          "name": "owner",
          "type": "address"
        },
        {
          "indexed": true,
          "internalType": "address",
          "name": "operator",
          "type": "address"
        },
        {
          "indexed": false,
          "internalType": "bool",
          "name": "approved",
          "type": "bool"
        }
      ],
      "name": "ApprovalForAll",
      "type": "event"
    },
    {
      "anonymous": false,
      "inputs": [
        {
          "indexed": true,
          "internalType": "bytes32",
          "name": "role",
          "type": "bytes32"
        },
        {
          "indexed": true,
          "internalType": "bytes32",
          "name": "previousAdminRole",
          "type": "bytes32"
        },
        {
          "indexed": true,
          "internalType": "bytes32",
          "name": "newAdminRole",
          "type": "bytes32"
        }
      ],
      "name": "RoleAdminChanged",
      "type": "event"
    },
    {
      "anonymous": false,
      "inputs": [
        {
          "indexed": true,
          "internalType": "bytes32",
          "name": "role",
          "type": "bytes32"
        },
        {
          "indexed": true,
          "internalType": "address",
          "name": "account",
          "type": "address"
        },
        {
          "indexed": true,
          "internalType": "address",
          "name": "sender",
          "type": "address"
        }
      ],
      "name": "RoleGranted",
      "type": "event"
    },
    {
      "anonymous": false,
      "inputs": [
        {
          "indexed": true,
          "internalType": "bytes32",
          "name": "role",
          "type": "bytes32"
        },
        {
          "indexed": true,
          "internalType": "address",
          "name": "account",
          "type": "address"
        },
        {
          "indexed": true,
          "internalType": "address",
          "name": "sender",
          "type": "address"
        }
      ],
      "name": "RoleRevoked",
      "type": "event"
    },
    {
      "anonymous": false,
      "inputs": [
        {
          "indexed": true,
          "internalType": "address",
          "name": "from",
          "type": "address"
        },
        {
          "indexed": true,
          "internalType": "address",
          "name": "to",
          "type": "address"
        },
        {
          "indexed": true,
          "internalType": "uint256",
          "name": "tokenId",
          "type": "uint256"
        }
      ],
      "name": "Transfer",
      "type": "event"
    },
    {
      "inputs": [],
      "name": "DEFAULT_ADMIN_ROLE",
      "outputs": [
        {
          "internalType": "bytes32",
          "name": "",
          "type": "bytes32"
        }
      ],
      "stateMutability": "view",
      "type": "function"
    },
    {
      "inputs": [],
      "name": "MINTER_ROLE",
      "outputs": [
        {
          "internalType": "bytes32",
          "name": "",
          "type": "bytes32"
        }
      ],
      "stateMutability": "view",
      "type": "function"
    },
    {
      "inputs": [
        {
          "internalType": "address",
          "name": "to",
          "type": "address"
        },
        {
          "internalType": "uint256",
          "name": "tokenId",
          "type": "uint256"
        }
      ],
      "name": "approve",
      "outputs": [],
      "stateMutability": "nonpayable",
      "type": "function"
    },
    {
      "inputs": [
        {
          "internalType": "address",
          "name": "owner",
          "type": "address"
        }
      ],
      "name": "balanceOf",
      "outputs": [
        {
          "internalType": "uint256",
          "name": "",
          "type": "uint256"
        }
      ],
      "stateMutability": "view",
      "type": "function"
    },
    {
      "inputs": [],
      "name": "defaultUri",
      "outputs": [
        {
          "internalType": "string",
          "name": "",
          "type": "string"
        }
      ],
      "stateMutability": "view",
      "type": "function"
    },
    {
      "inputs": [
        {
          "internalType": "uint256",
          "name": "tokenId",
          "type": "uint256"
        }
      ],
      "name": "getApproved",
      "outputs": [
        {
          "internalType": "address",
          "name": "",
          "type": "address"
        }
      ],
      "stateMutability": "view",
      "type": "function"
    },
    {
      "inputs": [
        {
          "internalType": "bytes32",
          "name": "role",
          "type": "bytes32"
        }
      ],
      "name": "getRoleAdmin",
      "outputs": [
        {
          "internalType": "bytes32",
          "name": "",
          "type": "bytes32"
        }
      ],
      "stateMutability": "view",
      "type": "function"
    },
    {
      "inputs": [
        {
          "internalType": "bytes32",
          "name": "role",
          "type": "bytes32"
        },
        {
          "internalType": "address",
          "name": "account",
          "type": "address"
        }
      ],
      "name": "grantRole",
      "outputs": [],
      "stateMutability": "nonpayable",
      "type": "function"
    },
    {
      "inputs": [
        {
          "internalType": "bytes32",
          "name": "role",
          "type": "bytes32"
        },
        {
          "internalType": "address",
          "name": "account",
          "type": "address"
        }
      ],
      "name": "hasRole",
      "outputs": [
        {
          "internalType": "bool",
          "name": "",
          "type": "bool"
        }
      ],
      "stateMutability": "view",
      "type": "function"
    },
    {
      "inputs": [],
      "name": "initialize",
      "outputs": [],
      "stateMutability": "nonpayable",
      "type": "function"
    },
    {
      "inputs": [
        {
          "internalType": "address",
          "name": "owner",
          "type": "address"
        },
        {
          "internalType": "address",
          "name": "operator",
          "type": "address"
        }
      ],
      "name": "isApprovedForAll",
      "outputs": [
        {
          "internalType": "bool",
          "name": "",
          "type": "bool"
        }
      ],
      "stateMutability": "view",
      "type": "function"
    },
    {
      "inputs": [],
      "name": "maxTotalSupply",
      "outputs": [
        {
          "internalType": "uint256",
          "name": "",
          "type": "uint256"
        }
      ],
      "stateMutability": "view",
      "type": "function"
    },
    {
      "inputs": [
        {
          "internalType": "address",
          "name": "to",
          "type": "address"
        },
        {
          "internalType": "uint256",
          "name": "mintIndex",
          "type": "uint256"
        }
      ],
      "name": "mint",
      "outputs": [],
      "stateMutability": "nonpayable",
      "type": "function"
    },
    {
      "inputs": [
        {
          "internalType": "address",
          "name": "to",
          "type": "address"
        },
        {
          "internalType": "uint256",
          "name": "nfts",
          "type": "uint256"
        }
      ],
      "name": "mintMultiple",
      "outputs": [],
      "stateMutability": "nonpayable",
      "type": "function"
    },
    {
      "inputs": [],
      "name": "name",
      "outputs": [
        {
          "internalType": "string",
          "name": "",
          "type": "string"
        }
      ],
      "stateMutability": "view",
      "type": "function"
    },
    {
      "inputs": [
        {
          "internalType": "uint256",
          "name": "tokenId",
          "type": "uint256"
        }
      ],
      "name": "ownerOf",
      "outputs": [
        {
          "internalType": "address",
          "name": "",
          "type": "address"
        }
      ],
      "stateMutability": "view",
      "type": "function"
    },
    {
      "inputs": [
        {
          "internalType": "bytes32",
          "name": "role",
          "type": "bytes32"
        },
        {
          "internalType": "address",
          "name": "account",
          "type": "address"
        }
      ],
      "name": "renounceRole",
      "outputs": [],
      "stateMutability": "nonpayable",
      "type": "function"
    },
    {
      "inputs": [
        {
          "internalType": "bytes32",
          "name": "role",
          "type": "bytes32"
        },
        {
          "internalType": "address",
          "name": "account",
          "type": "address"
        }
      ],
      "name": "revokeRole",
      "outputs": [],
      "stateMutability": "nonpayable",
      "type": "function"
    },
    {
      "inputs": [
        {
          "internalType": "address",
          "name": "from",
          "type": "address"
        },
        {
          "internalType": "address",
          "name": "to",
          "type": "address"
        },
        {
          "internalType": "uint256",
          "name": "tokenId",
          "type": "uint256"
        }
      ],
      "name": "safeTransferFrom",
      "outputs": [],
      "stateMutability": "nonpayable",
      "type": "function"
    },
    {
      "inputs": [
        {
          "internalType": "address",
          "name": "from",
          "type": "address"
        },
        {
          "internalType": "address",
          "name": "to",
          "type": "address"
        },
        {
          "internalType": "uint256",
          "name": "tokenId",
          "type": "uint256"
        },
        {
          "internalType": "bytes",
          "name": "_data",
          "type": "bytes"
        }
      ],
      "name": "safeTransferFrom",
      "outputs": [],
      "stateMutability": "nonpayable",
      "type": "function"
    },
    {
      "inputs": [
        {
          "internalType": "address",
          "name": "operator",
          "type": "address"
        },
        {
          "internalType": "bool",
          "name": "approved",
          "type": "bool"
        }
      ],
      "name": "setApprovalForAll",
      "outputs": [],
      "stateMutability": "nonpayable",
      "type": "function"
    },
    {
      "inputs": [
        {
          "internalType": "string",
          "name": "uri",
          "type": "string"
        }
      ],
      "name": "setDefaultUri",
      "outputs": [],
      "stateMutability": "nonpayable",
      "type": "function"
    },
    {
      "inputs": [
        {
          "internalType": "bytes4",
          "name": "interfaceId",
          "type": "bytes4"
        }
      ],
      "name": "supportsInterface",
      "outputs": [
        {
          "internalType": "bool",
          "name": "",
          "type": "bool"
        }
      ],
      "stateMutability": "view",
      "type": "function"
    },
    {
      "inputs": [],
      "name": "symbol",
      "outputs": [
        {
          "internalType": "string",
          "name": "",
          "type": "string"
        }
      ],
      "stateMutability": "view",
      "type": "function"
    },
    {
      "inputs": [
        {
          "internalType": "uint256",
          "name": "index",
          "type": "uint256"
        }
      ],
      "name": "tokenByIndex",
      "outputs": [
        {
          "internalType": "uint256",
          "name": "",
          "type": "uint256"
        }
      ],
      "stateMutability": "view",
      "type": "function"
    },
    {
      "inputs": [
        {
          "internalType": "address",
          "name": "owner",
          "type": "address"
        },
        {
          "internalType": "uint256",
          "name": "index",
          "type": "uint256"
        }
      ],
      "name": "tokenOfOwnerByIndex",
      "outputs": [
        {
          "internalType": "uint256",
          "name": "",
          "type": "uint256"
        }
      ],
      "stateMutability": "view",
      "type": "function"
    },
    {
      "inputs": [
        {
          "internalType": "uint256",
          "name": "tokenId",
          "type": "uint256"
        }
      ],
      "name": "tokenURI",
      "outputs": [
        {
          "internalType": "string",
          "name": "",
          "type": "string"
        }
      ],
      "stateMutability": "view",
      "type": "function"
    },
    {
      "inputs": [],
      "name": "totalSupply",
      "outputs": [
        {
          "internalType": "uint256",
          "name": "",
          "type": "uint256"
        }
      ],
      "stateMutability": "view",
      "type": "function"
    },
    {
      "inputs": [
        {
          "internalType": "address",
          "name": "from",
          "type": "address"
        },
        {
          "internalType": "address",
          "name": "to",
          "type": "address"
        },
        {
          "internalType": "uint256",
          "name": "tokenId",
          "type": "uint256"
        }
      ],
      "name": "transferFrom",
      "outputs": [],
      "stateMutability": "nonpayable",
      "type": "function"
    }
  ],
  "transactionHash": "0xf01ed6ecf5d34709016c074c0fc07736eb722f56ac0be4eb3da6dc596f3ce923",
  "args": [],
  "solcInputHash": "205138eda8ec960fe11ad3f3806d8561",
  "bytecode": "0x608060405234801561001057600080fd5b50612654806100206000396000f3fe608060405234801561001057600080fd5b50600436106101cf5760003560e01c80634f6ccce711610104578063a22cb465116100a2578063d2d99fec11610071578063d2d99fec146103c4578063d5391393146103cc578063d547741f146103e1578063e985e9c5146103f457600080fd5b8063a22cb46514610378578063b3fa4a4c1461038b578063b88d4fde1461039e578063c87b56dd146103b157600080fd5b80638129fc1c116100de5780638129fc1c1461034d57806391d148541461035557806395d89b4114610368578063a217fddf1461037057600080fd5b80634f6ccce7146103145780636352211e1461032757806370a082311461033a57600080fd5b80632ab4d0521161017157806336568abe1161014b57806336568abe146102c857806340c10f19146102db57806342842e0e146102ee578063466a18de1461030157600080fd5b80632ab4d052146102995780632f2ff15d146102a25780632f745c59146102b557600080fd5b8063095ea7b3116101ad578063095ea7b31461023c57806318160ddd1461025157806323b872dd14610263578063248a9ca31461027657600080fd5b806301ffc9a7146101d457806306fdde03146101fc578063081812fc14610211575b600080fd5b6101e76101e2366004611f00565b610430565b60405190151581526020015b60405180910390f35b610204610441565b6040516101f39190611f75565b61022461021f366004611f88565b6104d3565b6040516001600160a01b0390911681526020016101f3565b61024f61024a366004611fb8565b61056d565b005b6099545b6040519081526020016101f3565b61024f610271366004611fe2565b610683565b610255610284366004611f88565b600090815260c9602052604090206001015490565b61025560fb5481565b61024f6102b036600461201e565b6106b4565b6102556102c3366004611fb8565b6106da565b61024f6102d636600461201e565b610770565b61024f6102e9366004611fb8565b6107ee565b61024f6102fc366004611fe2565b610862565b61024f61030f3660046120d6565b61087d565b610255610322366004611f88565b61089c565b610224610335366004611f88565b61092f565b61025561034836600461211f565b6109a6565b61024f610a2d565b6101e761036336600461201e565b610b09565b610204610b34565b610255600081565b61024f61038636600461213a565b610b43565b61024f610399366004611fb8565b610c08565b61024f6103ac366004612176565b610c2b565b6102046103bf366004611f88565b610c63565b610204610cfc565b6102556000805160206125ff83398151915281565b61024f6103ef36600461201e565b610d8a565b6101e76104023660046121f2565b6001600160a01b039182166000908152606a6020908152604080832093909416825291909152205460ff1690565b600061043b82610db0565b92915050565b6060606580546104509061221c565b80601f016020809104026020016040519081016040528092919081815260200182805461047c9061221c565b80156104c95780601f1061049e576101008083540402835291602001916104c9565b820191906000526020600020905b8154815290600101906020018083116104ac57829003601f168201915b5050505050905090565b6000818152606760205260408120546001600160a01b03166105515760405162461bcd60e51b815260206004820152602c60248201527f4552433732313a20617070726f76656420717565727920666f72206e6f6e657860448201526b34b9ba32b73a103a37b5b2b760a11b60648201526084015b60405180910390fd5b506000908152606960205260409020546001600160a01b031690565b60006105788261092f565b9050806001600160a01b0316836001600160a01b031614156105e65760405162461bcd60e51b815260206004820152602160248201527f4552433732313a20617070726f76616c20746f2063757272656e74206f776e656044820152603960f91b6064820152608401610548565b336001600160a01b038216148061060257506106028133610402565b6106745760405162461bcd60e51b815260206004820152603860248201527f4552433732313a20617070726f76652063616c6c6572206973206e6f74206f7760448201527f6e6572206e6f7220617070726f76656420666f7220616c6c00000000000000006064820152608401610548565b61067e8383610dd5565b505050565b61068d3382610e43565b6106a95760405162461bcd60e51b815260040161054890612257565b61067e838383610f3a565b600082815260c960205260409020600101546106d081336110e5565b61067e8383611149565b60006106e5836109a6565b82106107475760405162461bcd60e51b815260206004820152602b60248201527f455243373231456e756d657261626c653a206f776e657220696e646578206f7560448201526a74206f6620626f756e647360a81b6064820152608401610548565b506001600160a01b03919091166000908152609760209081526040808320938352929052205490565b6001600160a01b03811633146107e05760405162461bcd60e51b815260206004820152602f60248201527f416363657373436f6e74726f6c3a2063616e206f6e6c792072656e6f756e636560448201526e103937b632b9903337b91039b2b63360891b6064820152608401610548565b6107ea82826111cf565b5050565b6000805160206125ff83398151915261080781336110e5565b60fb5482106108585760405162461bcd60e51b815260206004820152601a60248201527f6d696e74496e646578203e206d6178546f74616c537570706c790000000000006044820152606401610548565b61067e8383611236565b61067e83838360405180602001604052806000815250610c2b565b600061088981336110e5565b815161067e9060fc906020850190611e51565b60006108a760995490565b821061090a5760405162461bcd60e51b815260206004820152602c60248201527f455243373231456e756d657261626c653a20676c6f62616c20696e646578206f60448201526b7574206f6620626f756e647360a01b6064820152608401610548565b6099828154811061091d5761091d6122a8565b90600052602060002001549050919050565b6000818152606760205260408120546001600160a01b03168061043b5760405162461bcd60e51b815260206004820152602960248201527f4552433732313a206f776e657220717565727920666f72206e6f6e657869737460448201526832b73a103a37b5b2b760b91b6064820152608401610548565b60006001600160a01b038216610a115760405162461bcd60e51b815260206004820152602a60248201527f4552433732313a2062616c616e636520717565727920666f7220746865207a65604482015269726f206164647265737360b01b6064820152608401610548565b506001600160a01b031660009081526068602052604090205490565b600054610100900460ff1680610a46575060005460ff16155b610a625760405162461bcd60e51b8152600401610548906122be565b600054610100900460ff16158015610a84576000805461ffff19166101011790555b610abb60405180604001604052806006815260200165506c696e657360d01b81525060405180602001604052806000815250611250565b610ac36112d7565b610acb6112d7565b610ad660003361135a565b610aee6000805160206125ff8339815191523361135a565b61426860fb558015610b06576000805461ff00191690555b50565b600091825260c9602090815260408084206001600160a01b0393909316845291905290205460ff1690565b6060606680546104509061221c565b6001600160a01b038216331415610b9c5760405162461bcd60e51b815260206004820152601960248201527f4552433732313a20617070726f766520746f2063616c6c6572000000000000006044820152606401610548565b336000818152606a602090815260408083206001600160a01b03871680855290835292819020805460ff191686151590811790915590519081529192917f17307eab39ab6107e8899845ad3d59bd9653f200f220920489ca2b5937696c31910160405180910390a35050565b6000805160206125ff833981519152610c2181336110e5565b61067e8383611364565b610c353383610e43565b610c515760405162461bcd60e51b815260040161054890612257565b610c5d84848484611439565b50505050565b6000818152606760205260409020546060906001600160a01b0316610cca5760405162461bcd60e51b815260206004820152601f60248201527f55524920717565727920666f72206e6f6e6578697374656e7420746f6b656e006044820152606401610548565b60fc610cd58361146c565b604051602001610ce6929190612328565b6040516020818303038152906040529050919050565b60fc8054610d099061221c565b80601f0160208091040260200160405190810160405280929190818152602001828054610d359061221c565b8015610d825780601f10610d5757610100808354040283529160200191610d82565b820191906000526020600020905b815481529060010190602001808311610d6557829003601f168201915b505050505081565b600082815260c96020526040902060010154610da681336110e5565b61067e83836111cf565b60006001600160e01b03198216637965db0b60e01b148061043b575061043b8261156a565b600081815260696020526040902080546001600160a01b0319166001600160a01b0384169081179091558190610e0a8261092f565b6001600160a01b03167f8c5be1e5ebec7d5bd14f71427d1e84f3dd0314c0f7b2291e5b200ac8c7c3b92560405160405180910390a45050565b6000818152606760205260408120546001600160a01b0316610ebc5760405162461bcd60e51b815260206004820152602c60248201527f4552433732313a206f70657261746f7220717565727920666f72206e6f6e657860448201526b34b9ba32b73a103a37b5b2b760a11b6064820152608401610548565b6000610ec78361092f565b9050806001600160a01b0316846001600160a01b03161480610f025750836001600160a01b0316610ef7846104d3565b6001600160a01b0316145b80610f3257506001600160a01b038082166000908152606a602090815260408083209388168352929052205460ff165b949350505050565b826001600160a01b0316610f4d8261092f565b6001600160a01b031614610fb55760405162461bcd60e51b815260206004820152602960248201527f4552433732313a207472616e73666572206f6620746f6b656e2074686174206960448201526839903737ba1037bbb760b91b6064820152608401610548565b6001600160a01b0382166110175760405162461bcd60e51b8152602060048201526024808201527f4552433732313a207472616e7366657220746f20746865207a65726f206164646044820152637265737360e01b6064820152608401610548565b61102283838361158f565b61102d600082610dd5565b6001600160a01b0383166000908152606860205260408120805460019290611056908490612409565b90915550506001600160a01b0382166000908152606860205260408120805460019290611084908490612420565b909155505060008181526067602052604080822080546001600160a01b0319166001600160a01b0386811691821790925591518493918716917fddf252ad1be2c89b69c2b068fc378daa952ba7f163c4a11628f55a4df523b3ef91a4505050565b6110ef8282610b09565b6107ea57611107816001600160a01b031660146115f4565b6111128360206115f4565b604051602001611123929190612438565b60408051601f198184030181529082905262461bcd60e51b825261054891600401611f75565b6111538282610b09565b6107ea57600082815260c9602090815260408083206001600160a01b03851684529091529020805460ff1916600117905561118b3390565b6001600160a01b0316816001600160a01b0316837f2f8788117e7eff1d82e926ec794901d17c78024a50270940304540a733656f0d60405160405180910390a45050565b6111d98282610b09565b156107ea57600082815260c9602090815260408083206001600160a01b0385168085529252808320805460ff1916905551339285917ff6391f5c32d9c69d2a47ea670b442974b53935d1edc7fd64eb21e047a839171b9190a45050565b6107ea828260405180602001604052806000815250611797565b600054610100900460ff1680611269575060005460ff16155b6112855760405162461bcd60e51b8152600401610548906122be565b600054610100900460ff161580156112a7576000805461ffff19166101011790555b6112af6117ca565b6112b76117ca565b6112c18383611834565b801561067e576000805461ff0019169055505050565b600054610100900460ff16806112f0575060005460ff16155b61130c5760405162461bcd60e51b8152600401610548906122be565b600054610100900460ff1615801561132e576000805461ffff19166101011790555b6113366117ca565b61133e6117ca565b6113466117ca565b8015610b06576000805461ff001916905550565b6107ea8282611149565b600081116113a75760405162461bcd60e51b815260206004820152601060248201526f06e6674732063616e6e6f7420626520360841b6044820152606401610548565b60fb54816113b460995490565b6113be9190612420565b11156114055760405162461bcd60e51b815260206004820152601660248201527545786365656473206d6178546f74616c537570706c7960501b6044820152606401610548565b60005b8181101561067e57600061141a6118c9565b90506114268482611236565b5080611431816124ad565b915050611408565b611444848484610f3a565b6114508484848461195e565b610c5d5760405162461bcd60e51b8152600401610548906124c8565b6060816114905750506040805180820190915260018152600360fc1b602082015290565b8160005b81156114ba57806114a4816124ad565b91506114b39050600a83612530565b9150611494565b60008167ffffffffffffffff8111156114d5576114d561204a565b6040519080825280601f01601f1916602001820160405280156114ff576020820181803683370190505b5090505b8415610f3257611514600183612409565b9150611521600a86612544565b61152c906030612420565b60f81b818381518110611541576115416122a8565b60200101906001600160f81b031916908160001a905350611563600a86612530565b9450611503565b60006001600160e01b0319821663780e9d6360e01b148061043b575061043b82611a6b565b6001600160a01b0383166115e95760fb54609954106115e95760405162461bcd60e51b815260206004820152601660248201527545786365656473206d6178546f74616c537570706c7960501b6044820152606401610548565b61067e838383611abb565b60606000611603836002612558565b61160e906002612420565b67ffffffffffffffff8111156116265761162661204a565b6040519080825280601f01601f191660200182016040528015611650576020820181803683370190505b509050600360fc1b8160008151811061166b5761166b6122a8565b60200101906001600160f81b031916908160001a905350600f60fb1b8160018151811061169a5761169a6122a8565b60200101906001600160f81b031916908160001a90535060006116be846002612558565b6116c9906001612420565b90505b6001811115611741576f181899199a1a9b1b9c1cb0b131b232b360811b85600f16601081106116fd576116fd6122a8565b1a60f81b828281518110611713576117136122a8565b60200101906001600160f81b031916908160001a90535060049490941c9361173a81612577565b90506116cc565b5083156117905760405162461bcd60e51b815260206004820181905260248201527f537472696e67733a20686578206c656e67746820696e73756666696369656e746044820152606401610548565b9392505050565b6117a18383611b73565b6117ae600084848461195e565b61067e5760405162461bcd60e51b8152600401610548906124c8565b600054610100900460ff16806117e3575060005460ff16155b6117ff5760405162461bcd60e51b8152600401610548906122be565b600054610100900460ff16158015611346576000805461ffff19166101011790558015610b06576000805461ff001916905550565b600054610100900460ff168061184d575060005460ff16155b6118695760405162461bcd60e51b8152600401610548906122be565b600054610100900460ff1615801561188b576000805461ffff19166101011790555b825161189e906065906020860190611e51565b5081516118b2906066906020850190611e51565b50801561067e576000805461ff0019169055505050565b60008060fb54425a6118dc600143612409565b6040805160208101949094528301919091524060608201526080016040516020818303038152906040528051906020012060001c61191a9190612544565b90505b6000818152606760205260409020546001600160a01b03161561195957611945600182612420565b905060fb548110611954575060005b61191d565b919050565b60006001600160a01b0384163b15611a6057604051630a85bd0160e11b81526001600160a01b0385169063150b7a02906119a290339089908890889060040161258e565b602060405180830381600087803b1580156119bc57600080fd5b505af19250505080156119ec575060408051601f3d908101601f191682019092526119e9918101906125cb565b60015b611a46573d808015611a1a576040519150601f19603f3d011682016040523d82523d6000602084013e611a1f565b606091505b508051611a3e5760405162461bcd60e51b8152600401610548906124c8565b805181602001fd5b6001600160e01b031916630a85bd0160e11b149050610f32565b506001949350505050565b60006001600160e01b031982166380ac58cd60e01b1480611a9c57506001600160e01b03198216635b5e139f60e01b145b8061043b57506301ffc9a760e01b6001600160e01b031983161461043b565b6001600160a01b038316611b1657611b1181609980546000838152609a60205260408120829055600182018355919091527f72a152ddfb8e864297c917af52ea6c1c68aead0fee1a62673fcc7e0c94979d000155565b611b39565b816001600160a01b0316836001600160a01b031614611b3957611b398382611cc1565b6001600160a01b038216611b505761067e81611d5e565b826001600160a01b0316826001600160a01b03161461067e5761067e8282611e0d565b6001600160a01b038216611bc95760405162461bcd60e51b815260206004820181905260248201527f4552433732313a206d696e7420746f20746865207a65726f20616464726573736044820152606401610548565b6000818152606760205260409020546001600160a01b031615611c2e5760405162461bcd60e51b815260206004820152601c60248201527f4552433732313a20746f6b656e20616c7265616479206d696e746564000000006044820152606401610548565b611c3a6000838361158f565b6001600160a01b0382166000908152606860205260408120805460019290611c63908490612420565b909155505060008181526067602052604080822080546001600160a01b0319166001600160a01b03861690811790915590518392907fddf252ad1be2c89b69c2b068fc378daa952ba7f163c4a11628f55a4df523b3ef908290a45050565b60006001611cce846109a6565b611cd89190612409565b600083815260986020526040902054909150808214611d2b576001600160a01b03841660009081526097602090815260408083208584528252808320548484528184208190558352609890915290208190555b5060009182526098602090815260408084208490556001600160a01b039094168352609781528383209183525290812055565b609954600090611d7090600190612409565b6000838152609a602052604081205460998054939450909284908110611d9857611d986122a8565b906000526020600020015490508060998381548110611db957611db96122a8565b6000918252602080832090910192909255828152609a90915260408082208490558582528120556099805480611df157611df16125e8565b6001900381819060005260206000200160009055905550505050565b6000611e18836109a6565b6001600160a01b039093166000908152609760209081526040808320868452825280832085905593825260989052919091209190915550565b828054611e5d9061221c565b90600052602060002090601f016020900481019282611e7f5760008555611ec5565b82601f10611e9857805160ff1916838001178555611ec5565b82800160010185558215611ec5579182015b82811115611ec5578251825591602001919060010190611eaa565b50611ed1929150611ed5565b5090565b5b80821115611ed15760008155600101611ed6565b6001600160e01b031981168114610b0657600080fd5b600060208284031215611f1257600080fd5b813561179081611eea565b60005b83811015611f38578181015183820152602001611f20565b83811115610c5d5750506000910152565b60008151808452611f61816020860160208601611f1d565b601f01601f19169290920160200192915050565b6020815260006117906020830184611f49565b600060208284031215611f9a57600080fd5b5035919050565b80356001600160a01b038116811461195957600080fd5b60008060408385031215611fcb57600080fd5b611fd483611fa1565b946020939093013593505050565b600080600060608486031215611ff757600080fd5b61200084611fa1565b925061200e60208501611fa1565b9150604084013590509250925092565b6000806040838503121561203157600080fd5b8235915061204160208401611fa1565b90509250929050565b634e487b7160e01b600052604160045260246000fd5b600067ffffffffffffffff8084111561207b5761207b61204a565b604051601f8501601f19908116603f011681019082821181831017156120a3576120a361204a565b816040528093508581528686860111156120bc57600080fd5b858560208301376000602087830101525050509392505050565b6000602082840312156120e857600080fd5b813567ffffffffffffffff8111156120ff57600080fd5b8201601f8101841361211057600080fd5b610f3284823560208401612060565b60006020828403121561213157600080fd5b61179082611fa1565b6000806040838503121561214d57600080fd5b61215683611fa1565b91506020830135801515811461216b57600080fd5b809150509250929050565b6000806000806080858703121561218c57600080fd5b61219585611fa1565b93506121a360208601611fa1565b925060408501359150606085013567ffffffffffffffff8111156121c657600080fd5b8501601f810187136121d757600080fd5b6121e687823560208401612060565b91505092959194509250565b6000806040838503121561220557600080fd5b61220e83611fa1565b915061204160208401611fa1565b600181811c9082168061223057607f821691505b6020821081141561225157634e487b7160e01b600052602260045260246000fd5b50919050565b60208082526031908201527f4552433732313a207472616e736665722063616c6c6572206973206e6f74206f6040820152701ddb995c881b9bdc88185c1c1c9bdd9959607a1b606082015260800190565b634e487b7160e01b600052603260045260246000fd5b6020808252602e908201527f496e697469616c697a61626c653a20636f6e747261637420697320616c72656160408201526d191e481a5b9a5d1a585b1a5e995960921b606082015260800190565b6000815161231e818560208601611f1d565b9290920192915050565b600080845481600182811c91508083168061234457607f831692505b602080841082141561236457634e487b7160e01b86526022600452602486fd5b8180156123785760018114612389576123b6565b60ff198616895284890196506123b6565b60008b81526020902060005b868110156123ae5781548b820152908501908301612395565b505084890196505b5050505050506123ea6123d96123d383602f60f81b815260010190565b8661230c565b64173539b7b760d91b815260050190565b95945050505050565b634e487b7160e01b600052601160045260246000fd5b60008282101561241b5761241b6123f3565b500390565b60008219821115612433576124336123f3565b500190565b7f416363657373436f6e74726f6c3a206163636f756e7420000000000000000000815260008351612470816017850160208801611f1d565b7001034b99036b4b9b9b4b733903937b6329607d1b60179184019182015283516124a1816028840160208801611f1d565b01602801949350505050565b60006000198214156124c1576124c16123f3565b5060010190565b60208082526032908201527f4552433732313a207472616e7366657220746f206e6f6e20455243373231526560408201527131b2b4bb32b91034b6b83632b6b2b73a32b960711b606082015260800190565b634e487b7160e01b600052601260045260246000fd5b60008261253f5761253f61251a565b500490565b6000826125535761255361251a565b500690565b6000816000190483118215151615612572576125726123f3565b500290565b600081612586576125866123f3565b506000190190565b6001600160a01b03858116825284166020820152604081018390526080606082018190526000906125c190830184611f49565b9695505050505050565b6000602082840312156125dd57600080fd5b815161179081611eea565b634e487b7160e01b600052603160045260246000fdfe9f2df0fed2c77648de5860a4cc508cd0818c85b8b8a1ab4ceeef8d981c8956a6a26469706673582212206c0cc6b66fab31d17b37fea7d255f14f363465936ee435c69760c46a923dbdd064736f6c63430008090033",
  "devdoc": {
    "author": "Plines team*",
    "kind": "dev",
    "methods": {
      "approve(address,uint256)": {
        "details": "See {IERC721-approve}."
      },
      "balanceOf(address)": {
        "details": "See {IERC721-balanceOf}."
      },
      "getApproved(uint256)": {
        "details": "See {IERC721-getApproved}."
      },
      "getRoleAdmin(bytes32)": {
        "details": "Returns the admin role that controls `role`. See {grantRole} and {revokeRole}. To change a role's admin, use {_setRoleAdmin}."
      },
      "grantRole(bytes32,address)": {
        "details": "Grants `role` to `account`. If `account` had not been already granted `role`, emits a {RoleGranted} event. Requirements: - the caller must have ``role``'s admin role."
      },
      "hasRole(bytes32,address)": {
        "details": "Returns `true` if `account` has been granted `role`."
      },
      "isApprovedForAll(address,address)": {
        "details": "See {IERC721-isApprovedForAll}."
      },
      "mint(address,uint256)": {
        "details": "Mints a specific token (with known id) to the given address",
        "params": {
          "mintIndex": "the tokenId to mint",
          "to": "the receiver"
        }
      },
      "mintMultiple(address,uint256)": {
        "details": "Public method to randomly mint desired number of NFTs",
        "params": {
          "nfts": "the number of tokens to be minted",
          "to": "the receiver"
        }
      },
      "name()": {
        "details": "See {IERC721Metadata-name}."
      },
      "ownerOf(uint256)": {
        "details": "See {IERC721-ownerOf}."
      },
      "renounceRole(bytes32,address)": {
        "details": "Revokes `role` from the calling account. Roles are often managed via {grantRole} and {revokeRole}: this function's purpose is to provide a mechanism for accounts to lose their privileges if they are compromised (such as when a trusted device is misplaced). If the calling account had been granted `role`, emits a {RoleRevoked} event. Requirements: - the caller must be `account`."
      },
      "revokeRole(bytes32,address)": {
        "details": "Revokes `role` from `account`. If `account` had been granted `role`, emits a {RoleRevoked} event. Requirements: - the caller must have ``role``'s admin role."
      },
      "safeTransferFrom(address,address,uint256)": {
        "details": "See {IERC721-safeTransferFrom}."
      },
      "safeTransferFrom(address,address,uint256,bytes)": {
        "details": "See {IERC721-safeTransferFrom}."
      },
      "setApprovalForAll(address,bool)": {
        "details": "See {IERC721-setApprovalForAll}."
      },
      "setDefaultUri(string)": {
        "details": "Set defaultUri"
      },
      "supportsInterface(bytes4)": {
        "details": "See {IERC165-supportsInterface}."
      },
      "symbol()": {
        "details": "See {IERC721Metadata-symbol}."
      },
      "tokenByIndex(uint256)": {
        "details": "See {IERC721Enumerable-tokenByIndex}."
      },
      "tokenOfOwnerByIndex(address,uint256)": {
        "details": "See {IERC721Enumerable-tokenOfOwnerByIndex}."
      },
      "tokenURI(uint256)": {
        "details": "IPFS address that stores JSON with token attributes",
        "params": {
          "tokenId": "id of the token"
        },
        "returns": {
          "_0": "string with ipfs address to json with token attribute or URI for default token if token doesn`t exist"
        }
      },
      "totalSupply()": {
        "details": "See {IERC721Enumerable-totalSupply}."
      },
      "transferFrom(address,address,uint256)": {
        "details": "See {IERC721-transferFrom}."
      }
    },
    "title": "Plines",
    "version": 1
  },
  "userdoc": {
    "kind": "user",
    "methods": {},
    "version": 1
  },
  "storageLayout": {
    "storage": [
      {
        "astId": 413,
        "contract": "contracts/Plines.sol:Plines",
        "label": "_initialized",
        "offset": 0,
        "slot": "0",
        "type": "t_bool"
      },
      {
        "astId": 416,
        "contract": "contracts/Plines.sol:Plines",
        "label": "_initializing",
        "offset": 1,
        "slot": "0",
        "type": "t_bool"
      },
      {
        "astId": 2145,
        "contract": "contracts/Plines.sol:Plines",
        "label": "__gap",
        "offset": 0,
        "slot": "1",
        "type": "t_array(t_uint256)50_storage"
      },
      {
        "astId": 2394,
        "contract": "contracts/Plines.sol:Plines",
        "label": "__gap",
        "offset": 0,
        "slot": "51",
        "type": "t_array(t_uint256)50_storage"
      },
      {
        "astId": 482,
        "contract": "contracts/Plines.sol:Plines",
        "label": "_name",
        "offset": 0,
        "slot": "101",
        "type": "t_string_storage"
      },
      {
        "astId": 484,
        "contract": "contracts/Plines.sol:Plines",
        "label": "_symbol",
        "offset": 0,
        "slot": "102",
        "type": "t_string_storage"
      },
      {
        "astId": 488,
        "contract": "contracts/Plines.sol:Plines",
        "label": "_owners",
        "offset": 0,
        "slot": "103",
        "type": "t_mapping(t_uint256,t_address)"
      },
      {
        "astId": 492,
        "contract": "contracts/Plines.sol:Plines",
        "label": "_balances",
        "offset": 0,
        "slot": "104",
        "type": "t_mapping(t_address,t_uint256)"
      },
      {
        "astId": 496,
        "contract": "contracts/Plines.sol:Plines",
        "label": "_tokenApprovals",
        "offset": 0,
        "slot": "105",
        "type": "t_mapping(t_uint256,t_address)"
      },
      {
        "astId": 502,
        "contract": "contracts/Plines.sol:Plines",
        "label": "_operatorApprovals",
        "offset": 0,
        "slot": "106",
        "type": "t_mapping(t_address,t_mapping(t_address,t_bool))"
      },
      {
        "astId": 1298,
        "contract": "contracts/Plines.sol:Plines",
        "label": "__gap",
        "offset": 0,
        "slot": "107",
        "type": "t_array(t_uint256)44_storage"
      },
      {
        "astId": 1472,
        "contract": "contracts/Plines.sol:Plines",
        "label": "_ownedTokens",
        "offset": 0,
        "slot": "151",
        "type": "t_mapping(t_address,t_mapping(t_uint256,t_uint256))"
      },
      {
        "astId": 1476,
        "contract": "contracts/Plines.sol:Plines",
        "label": "_ownedTokensIndex",
        "offset": 0,
        "slot": "152",
        "type": "t_mapping(t_uint256,t_uint256)"
      },
      {
        "astId": 1479,
        "contract": "contracts/Plines.sol:Plines",
        "label": "_allTokens",
        "offset": 0,
        "slot": "153",
        "type": "t_array(t_uint256)dyn_storage"
      },
      {
        "astId": 1483,
        "contract": "contracts/Plines.sol:Plines",
        "label": "_allTokensIndex",
        "offset": 0,
        "slot": "154",
        "type": "t_mapping(t_uint256,t_uint256)"
      },
      {
        "astId": 1798,
        "contract": "contracts/Plines.sol:Plines",
        "label": "__gap",
        "offset": 0,
        "slot": "155",
        "type": "t_array(t_uint256)46_storage"
      },
      {
        "astId": 48,
        "contract": "contracts/Plines.sol:Plines",
        "label": "_roles",
        "offset": 0,
        "slot": "201",
        "type": "t_mapping(t_bytes32,t_struct(RoleData)43_storage)"
      },
      {
        "astId": 333,
        "contract": "contracts/Plines.sol:Plines",
        "label": "__gap",
        "offset": 0,
        "slot": "202",
        "type": "t_array(t_uint256)49_storage"
      },
      {
        "astId": 2940,
        "contract": "contracts/Plines.sol:Plines",
        "label": "maxTotalSupply",
        "offset": 0,
        "slot": "251",
        "type": "t_uint256"
      },
      {
        "astId": 2942,
        "contract": "contracts/Plines.sol:Plines",
        "label": "defaultUri",
        "offset": 0,
        "slot": "252",
        "type": "t_string_storage"
      }
    ],
    "types": {
      "t_address": {
        "encoding": "inplace",
        "label": "address",
        "numberOfBytes": "20"
      },
      "t_array(t_uint256)44_storage": {
        "base": "t_uint256",
        "encoding": "inplace",
        "label": "uint256[44]",
        "numberOfBytes": "1408"
      },
      "t_array(t_uint256)46_storage": {
        "base": "t_uint256",
        "encoding": "inplace",
        "label": "uint256[46]",
        "numberOfBytes": "1472"
      },
      "t_array(t_uint256)49_storage": {
        "base": "t_uint256",
        "encoding": "inplace",
        "label": "uint256[49]",
        "numberOfBytes": "1568"
      },
      "t_array(t_uint256)50_storage": {
        "base": "t_uint256",
        "encoding": "inplace",
        "label": "uint256[50]",
        "numberOfBytes": "1600"
      },
      "t_array(t_uint256)dyn_storage": {
        "base": "t_uint256",
        "encoding": "dynamic_array",
        "label": "uint256[]",
        "numberOfBytes": "32"
      },
      "t_bool": {
        "encoding": "inplace",
        "label": "bool",
        "numberOfBytes": "1"
      },
      "t_bytes32": {
        "encoding": "inplace",
        "label": "bytes32",
        "numberOfBytes": "32"
      },
      "t_mapping(t_address,t_bool)": {
        "encoding": "mapping",
        "key": "t_address",
        "label": "mapping(address => bool)",
        "numberOfBytes": "32",
        "value": "t_bool"
      },
      "t_mapping(t_address,t_mapping(t_address,t_bool))": {
        "encoding": "mapping",
        "key": "t_address",
        "label": "mapping(address => mapping(address => bool))",
        "numberOfBytes": "32",
        "value": "t_mapping(t_address,t_bool)"
      },
      "t_mapping(t_address,t_mapping(t_uint256,t_uint256))": {
        "encoding": "mapping",
        "key": "t_address",
        "label": "mapping(address => mapping(uint256 => uint256))",
        "numberOfBytes": "32",
        "value": "t_mapping(t_uint256,t_uint256)"
      },
      "t_mapping(t_address,t_uint256)": {
        "encoding": "mapping",
        "key": "t_address",
        "label": "mapping(address => uint256)",
        "numberOfBytes": "32",
        "value": "t_uint256"
      },
      "t_mapping(t_bytes32,t_struct(RoleData)43_storage)": {
        "encoding": "mapping",
        "key": "t_bytes32",
        "label": "mapping(bytes32 => struct AccessControlUpgradeable.RoleData)",
        "numberOfBytes": "32",
        "value": "t_struct(RoleData)43_storage"
      },
      "t_mapping(t_uint256,t_address)": {
        "encoding": "mapping",
        "key": "t_uint256",
        "label": "mapping(uint256 => address)",
        "numberOfBytes": "32",
        "value": "t_address"
      },
      "t_mapping(t_uint256,t_uint256)": {
        "encoding": "mapping",
        "key": "t_uint256",
        "label": "mapping(uint256 => uint256)",
        "numberOfBytes": "32",
        "value": "t_uint256"
      },
      "t_string_storage": {
        "encoding": "bytes",
        "label": "string",
        "numberOfBytes": "32"
      },
      "t_struct(RoleData)43_storage": {
        "encoding": "inplace",
        "label": "struct AccessControlUpgradeable.RoleData",
        "members": [
          {
            "astId": 40,
            "contract": "contracts/Plines.sol:Plines",
            "label": "members",
            "offset": 0,
            "slot": "0",
            "type": "t_mapping(t_address,t_bool)"
          },
          {
            "astId": 42,
            "contract": "contracts/Plines.sol:Plines",
            "label": "adminRole",
            "offset": 0,
            "slot": "1",
            "type": "t_bytes32"
          }
        ],
        "numberOfBytes": "64"
      },
      "t_uint256": {
        "encoding": "inplace",
        "label": "uint256",
        "numberOfBytes": "32"
      }
    }
  }
}