{
  "address": "0x366F91b0B3261539a9cF0BFaB347A75b6f645D73",
  "abi": [
    {
      "anonymous": false,
      "inputs": [
        {
          "indexed": true,
          "internalType": "address",
          "name": "owner",
          "type": "address"
        },
        {
          "indexed": true,
          "internalType": "address",
          "name": "approved",
          "type": "address"
        },
        {
          "indexed": true,
          "internalType": "uint256",
          "name": "tokenId",
          "type": "uint256"
        }
      ],
      "name": "Approval",
      "type": "event"
    },
    {
      "anonymous": false,
      "inputs": [
        {
          "indexed": true,
          "internalType": "address",
          "name": "owner",
          "type": "address"
        },
        {
          "indexed": true,
          "internalType": "address",
          "name": "operator",
          "type": "address"
        },
        {
          "indexed": false,
          "internalType": "bool",
          "name": "approved",
          "type": "bool"
        }
      ],
      "name": "ApprovalForAll",
      "type": "event"
    },
    {
      "anonymous": false,
      "inputs": [
        {
          "indexed": true,
          "internalType": "bytes32",
          "name": "role",
          "type": "bytes32"
        },
        {
          "indexed": true,
          "internalType": "bytes32",
          "name": "previousAdminRole",
          "type": "bytes32"
        },
        {
          "indexed": true,
          "internalType": "bytes32",
          "name": "newAdminRole",
          "type": "bytes32"
        }
      ],
      "name": "RoleAdminChanged",
      "type": "event"
    },
    {
      "anonymous": false,
      "inputs": [
        {
          "indexed": true,
          "internalType": "bytes32",
          "name": "role",
          "type": "bytes32"
        },
        {
          "indexed": true,
          "internalType": "address",
          "name": "account",
          "type": "address"
        },
        {
          "indexed": true,
          "internalType": "address",
          "name": "sender",
          "type": "address"
        }
      ],
      "name": "RoleGranted",
      "type": "event"
    },
    {
      "anonymous": false,
      "inputs": [
        {
          "indexed": true,
          "internalType": "bytes32",
          "name": "role",
          "type": "bytes32"
        },
        {
          "indexed": true,
          "internalType": "address",
          "name": "account",
          "type": "address"
        },
        {
          "indexed": true,
          "internalType": "address",
          "name": "sender",
          "type": "address"
        }
      ],
      "name": "RoleRevoked",
      "type": "event"
    },
    {
      "anonymous": false,
      "inputs": [
        {
          "indexed": true,
          "internalType": "address",
          "name": "from",
          "type": "address"
        },
        {
          "indexed": true,
          "internalType": "address",
          "name": "to",
          "type": "address"
        },
        {
          "indexed": true,
          "internalType": "uint256",
          "name": "tokenId",
          "type": "uint256"
        }
      ],
      "name": "Transfer",
      "type": "event"
    },
    {
      "inputs": [],
      "name": "DEFAULT_ADMIN_ROLE",
      "outputs": [
        {
          "internalType": "bytes32",
          "name": "",
          "type": "bytes32"
        }
      ],
      "stateMutability": "view",
      "type": "function"
    },
    {
      "inputs": [],
      "name": "MINTER_ROLE",
      "outputs": [
        {
          "internalType": "bytes32",
          "name": "",
          "type": "bytes32"
        }
      ],
      "stateMutability": "view",
      "type": "function"
    },
    {
      "inputs": [
        {
          "internalType": "address",
          "name": "to",
          "type": "address"
        },
        {
          "internalType": "uint256",
          "name": "tokenId",
          "type": "uint256"
        }
      ],
      "name": "approve",
      "outputs": [],
      "stateMutability": "nonpayable",
      "type": "function"
    },
    {
      "inputs": [
        {
          "internalType": "address",
          "name": "owner",
          "type": "address"
        }
      ],
      "name": "balanceOf",
      "outputs": [
        {
          "internalType": "uint256",
          "name": "",
          "type": "uint256"
        }
      ],
      "stateMutability": "view",
      "type": "function"
    },
    {
      "inputs": [],
      "name": "baseUri",
      "outputs": [
        {
          "internalType": "string",
          "name": "",
          "type": "string"
        }
      ],
      "stateMutability": "view",
      "type": "function"
    },
    {
      "inputs": [
        {
          "internalType": "uint256",
          "name": "tokenId",
          "type": "uint256"
        }
      ],
      "name": "getApproved",
      "outputs": [
        {
          "internalType": "address",
          "name": "",
          "type": "address"
        }
      ],
      "stateMutability": "view",
      "type": "function"
    },
    {
      "inputs": [
        {
          "internalType": "bytes32",
          "name": "role",
          "type": "bytes32"
        }
      ],
      "name": "getRoleAdmin",
      "outputs": [
        {
          "internalType": "bytes32",
          "name": "",
          "type": "bytes32"
        }
      ],
      "stateMutability": "view",
      "type": "function"
    },
    {
      "inputs": [
        {
          "internalType": "bytes32",
          "name": "role",
          "type": "bytes32"
        },
        {
          "internalType": "address",
          "name": "account",
          "type": "address"
        }
      ],
      "name": "grantRole",
      "outputs": [],
      "stateMutability": "nonpayable",
      "type": "function"
    },
    {
      "inputs": [
        {
          "internalType": "bytes32",
          "name": "role",
          "type": "bytes32"
        },
        {
          "internalType": "address",
          "name": "account",
          "type": "address"
        }
      ],
      "name": "hasRole",
      "outputs": [
        {
          "internalType": "bool",
          "name": "",
          "type": "bool"
        }
      ],
      "stateMutability": "view",
      "type": "function"
    },
    {
      "inputs": [],
      "name": "initialize",
      "outputs": [],
      "stateMutability": "nonpayable",
      "type": "function"
    },
    {
      "inputs": [
        {
          "internalType": "address",
          "name": "owner",
          "type": "address"
        },
        {
          "internalType": "address",
          "name": "operator",
          "type": "address"
        }
      ],
      "name": "isApprovedForAll",
      "outputs": [
        {
          "internalType": "bool",
          "name": "",
          "type": "bool"
        }
      ],
      "stateMutability": "view",
      "type": "function"
    },
    {
      "inputs": [],
      "name": "maxTotalSupply",
      "outputs": [
        {
          "internalType": "uint256",
          "name": "",
          "type": "uint256"
        }
      ],
      "stateMutability": "view",
      "type": "function"
    },
    {
      "inputs": [
        {
          "internalType": "address",
          "name": "to",
          "type": "address"
        },
        {
          "internalType": "uint256",
          "name": "mintIndex",
          "type": "uint256"
        }
      ],
      "name": "mint",
      "outputs": [],
      "stateMutability": "nonpayable",
      "type": "function"
    },
    {
      "inputs": [
        {
          "internalType": "address",
          "name": "to",
          "type": "address"
        },
        {
          "internalType": "uint256",
          "name": "nfts",
          "type": "uint256"
        }
      ],
      "name": "mintMultiple",
      "outputs": [],
      "stateMutability": "nonpayable",
      "type": "function"
    },
    {
      "inputs": [],
      "name": "name",
      "outputs": [
        {
          "internalType": "string",
          "name": "",
          "type": "string"
        }
      ],
      "stateMutability": "view",
      "type": "function"
    },
    {
      "inputs": [
        {
          "internalType": "uint256",
          "name": "tokenId",
          "type": "uint256"
        }
      ],
      "name": "ownerOf",
      "outputs": [
        {
          "internalType": "address",
          "name": "",
          "type": "address"
        }
      ],
      "stateMutability": "view",
      "type": "function"
    },
    {
      "inputs": [
        {
          "internalType": "bytes32",
          "name": "role",
          "type": "bytes32"
        },
        {
          "internalType": "address",
          "name": "account",
          "type": "address"
        }
      ],
      "name": "renounceRole",
      "outputs": [],
      "stateMutability": "nonpayable",
      "type": "function"
    },
    {
      "inputs": [
        {
          "internalType": "bytes32",
          "name": "role",
          "type": "bytes32"
        },
        {
          "internalType": "address",
          "name": "account",
          "type": "address"
        }
      ],
      "name": "revokeRole",
      "outputs": [],
      "stateMutability": "nonpayable",
      "type": "function"
    },
    {
      "inputs": [
        {
          "internalType": "address",
          "name": "from",
          "type": "address"
        },
        {
          "internalType": "address",
          "name": "to",
          "type": "address"
        },
        {
          "internalType": "uint256",
          "name": "tokenId",
          "type": "uint256"
        }
      ],
      "name": "safeTransferFrom",
      "outputs": [],
      "stateMutability": "nonpayable",
      "type": "function"
    },
    {
      "inputs": [
        {
          "internalType": "address",
          "name": "from",
          "type": "address"
        },
        {
          "internalType": "address",
          "name": "to",
          "type": "address"
        },
        {
          "internalType": "uint256",
          "name": "tokenId",
          "type": "uint256"
        },
        {
          "internalType": "bytes",
          "name": "_data",
          "type": "bytes"
        }
      ],
      "name": "safeTransferFrom",
      "outputs": [],
      "stateMutability": "nonpayable",
      "type": "function"
    },
    {
      "inputs": [
        {
          "internalType": "address",
          "name": "operator",
          "type": "address"
        },
        {
          "internalType": "bool",
          "name": "approved",
          "type": "bool"
        }
      ],
      "name": "setApprovalForAll",
      "outputs": [],
      "stateMutability": "nonpayable",
      "type": "function"
    },
    {
      "inputs": [
        {
          "internalType": "string",
          "name": "uri",
          "type": "string"
        }
      ],
      "name": "setBaseUri",
      "outputs": [],
      "stateMutability": "nonpayable",
      "type": "function"
    },
    {
      "inputs": [
        {
          "internalType": "bytes4",
          "name": "interfaceId",
          "type": "bytes4"
        }
      ],
      "name": "supportsInterface",
      "outputs": [
        {
          "internalType": "bool",
          "name": "",
          "type": "bool"
        }
      ],
      "stateMutability": "view",
      "type": "function"
    },
    {
      "inputs": [],
      "name": "symbol",
      "outputs": [
        {
          "internalType": "string",
          "name": "",
          "type": "string"
        }
      ],
      "stateMutability": "view",
      "type": "function"
    },
    {
      "inputs": [
        {
          "internalType": "uint256",
          "name": "index",
          "type": "uint256"
        }
      ],
      "name": "tokenByIndex",
      "outputs": [
        {
          "internalType": "uint256",
          "name": "",
          "type": "uint256"
        }
      ],
      "stateMutability": "view",
      "type": "function"
    },
    {
      "inputs": [
        {
          "internalType": "address",
          "name": "owner",
          "type": "address"
        },
        {
          "internalType": "uint256",
          "name": "index",
          "type": "uint256"
        }
      ],
      "name": "tokenOfOwnerByIndex",
      "outputs": [
        {
          "internalType": "uint256",
          "name": "",
          "type": "uint256"
        }
      ],
      "stateMutability": "view",
      "type": "function"
    },
    {
      "inputs": [
        {
          "internalType": "uint256",
          "name": "tokenId",
          "type": "uint256"
        }
      ],
      "name": "tokenURI",
      "outputs": [
        {
          "internalType": "string",
          "name": "",
          "type": "string"
        }
      ],
      "stateMutability": "view",
      "type": "function"
    },
    {
      "inputs": [],
      "name": "totalSupply",
      "outputs": [
        {
          "internalType": "uint256",
          "name": "",
          "type": "uint256"
        }
      ],
      "stateMutability": "view",
      "type": "function"
    },
    {
      "inputs": [
        {
          "internalType": "address",
          "name": "from",
          "type": "address"
        },
        {
          "internalType": "address",
          "name": "to",
          "type": "address"
        },
        {
          "internalType": "uint256",
          "name": "tokenId",
          "type": "uint256"
        }
      ],
      "name": "transferFrom",
      "outputs": [],
      "stateMutability": "nonpayable",
      "type": "function"
    }
  ],
  "transactionHash": "0x9c303376634268f2511e713ea72db2a7e2070440a1149164852d50f1cc205053",
  "args": [],
  "solcInputHash": "5218d7e451c301d0db13d1471963b36a",
  "bytecode": "0x608060405234801561001057600080fd5b50612651806100206000396000f3fe608060405234801561001057600080fd5b50600436106101cf5760003560e01c80636352211e11610104578063a217fddf116100a2578063c87b56dd11610071578063c87b56dd146103b9578063d5391393146103cc578063d547741f146103e1578063e985e9c5146103f457600080fd5b8063a217fddf14610378578063a22cb46514610380578063b3fa4a4c14610393578063b88d4fde146103a657600080fd5b806391d14854116100de57806391d148541461034257806395d89b41146103555780639abc83201461035d578063a0bcfc7f1461036557600080fd5b80636352211e1461031457806370a08231146103275780638129fc1c1461033a57600080fd5b80632ab4d0521161017157806336568abe1161014b57806336568abe146102c857806340c10f19146102db57806342842e0e146102ee5780634f6ccce71461030157600080fd5b80632ab4d052146102995780632f2ff15d146102a25780632f745c59146102b557600080fd5b8063095ea7b3116101ad578063095ea7b31461023c57806318160ddd1461025157806323b872dd14610263578063248a9ca31461027657600080fd5b806301ffc9a7146101d457806306fdde03146101fc578063081812fc14610211575b600080fd5b6101e76101e2366004611efd565b610430565b60405190151581526020015b60405180910390f35b610204610441565b6040516101f39190611f72565b61022461021f366004611f85565b6104d3565b6040516001600160a01b0390911681526020016101f3565b61024f61024a366004611fb5565b61056d565b005b6099545b6040519081526020016101f3565b61024f610271366004611fdf565b610683565b610255610284366004611f85565b600090815260c9602052604090206001015490565b61025560fb5481565b61024f6102b036600461201b565b6106b4565b6102556102c3366004611fb5565b6106da565b61024f6102d636600461201b565b610770565b61024f6102e9366004611fb5565b6107ee565b61024f6102fc366004611fdf565b610862565b61025561030f366004611f85565b61087d565b610224610322366004611f85565b610910565b610255610335366004612047565b610987565b61024f610a0e565b6101e761035036600461201b565b610af6565b610204610b21565b610204610b30565b61024f6103733660046120ee565b610bbe565b610255600081565b61024f61038e366004612137565b610bdd565b61024f6103a1366004611fb5565b610ca2565b61024f6103b4366004612173565b610cc5565b6102046103c7366004611f85565b610cfd565b6102556000805160206125fc83398151915281565b61024f6103ef36600461201b565b610d96565b6101e76104023660046121ef565b6001600160a01b039182166000908152606a6020908152604080832093909416825291909152205460ff1690565b600061043b82610dbc565b92915050565b60606065805461045090612219565b80601f016020809104026020016040519081016040528092919081815260200182805461047c90612219565b80156104c95780601f1061049e576101008083540402835291602001916104c9565b820191906000526020600020905b8154815290600101906020018083116104ac57829003601f168201915b5050505050905090565b6000818152606760205260408120546001600160a01b03166105515760405162461bcd60e51b815260206004820152602c60248201527f4552433732313a20617070726f76656420717565727920666f72206e6f6e657860448201526b34b9ba32b73a103a37b5b2b760a11b60648201526084015b60405180910390fd5b506000908152606960205260409020546001600160a01b031690565b600061057882610910565b9050806001600160a01b0316836001600160a01b031614156105e65760405162461bcd60e51b815260206004820152602160248201527f4552433732313a20617070726f76616c20746f2063757272656e74206f776e656044820152603960f91b6064820152608401610548565b336001600160a01b038216148061060257506106028133610402565b6106745760405162461bcd60e51b815260206004820152603860248201527f4552433732313a20617070726f76652063616c6c6572206973206e6f74206f7760448201527f6e6572206e6f7220617070726f76656420666f7220616c6c00000000000000006064820152608401610548565b61067e8383610de1565b505050565b61068d3382610e4f565b6106a95760405162461bcd60e51b815260040161054890612254565b61067e838383610f46565b600082815260c960205260409020600101546106d081336110f1565b61067e8383611155565b60006106e583610987565b82106107475760405162461bcd60e51b815260206004820152602b60248201527f455243373231456e756d657261626c653a206f776e657220696e646578206f7560448201526a74206f6620626f756e647360a81b6064820152608401610548565b506001600160a01b03919091166000908152609760209081526040808320938352929052205490565b6001600160a01b03811633146107e05760405162461bcd60e51b815260206004820152602f60248201527f416363657373436f6e74726f6c3a2063616e206f6e6c792072656e6f756e636560448201526e103937b632b9903337b91039b2b63360891b6064820152608401610548565b6107ea82826111db565b5050565b6000805160206125fc83398151915261080781336110f1565b60fb5482106108585760405162461bcd60e51b815260206004820152601a60248201527f6d696e74496e646578203e206d6178546f74616c537570706c790000000000006044820152606401610548565b61067e8383611242565b61067e83838360405180602001604052806000815250610cc5565b600061088860995490565b82106108eb5760405162461bcd60e51b815260206004820152602c60248201527f455243373231456e756d657261626c653a20676c6f62616c20696e646578206f60448201526b7574206f6620626f756e647360a01b6064820152608401610548565b609982815481106108fe576108fe6122a5565b90600052602060002001549050919050565b6000818152606760205260408120546001600160a01b03168061043b5760405162461bcd60e51b815260206004820152602960248201527f4552433732313a206f776e657220717565727920666f72206e6f6e657869737460448201526832b73a103a37b5b2b760b91b6064820152608401610548565b60006001600160a01b0382166109f25760405162461bcd60e51b815260206004820152602a60248201527f4552433732313a2062616c616e636520717565727920666f7220746865207a65604482015269726f206164647265737360b01b6064820152608401610548565b506001600160a01b031660009081526068602052604090205490565b600054610100900460ff1680610a27575060005460ff16155b610a435760405162461bcd60e51b8152600401610548906122bb565b600054610100900460ff16158015610a65576000805461ffff19166101011790555b610aa860405180604001604052806006815260200165506c696e657360d01b8152506040518060400160405280600381526020016228262760e91b81525061125c565b610ab06112e3565b610ab86112e3565b610ac3600033611366565b610adb6000805160206125fc83398151915233611366565b61426860fb558015610af3576000805461ff00191690555b50565b600091825260c9602090815260408084206001600160a01b0393909316845291905290205460ff1690565b60606066805461045090612219565b60fc8054610b3d90612219565b80601f0160208091040260200160405190810160405280929190818152602001828054610b6990612219565b8015610bb65780601f10610b8b57610100808354040283529160200191610bb6565b820191906000526020600020905b815481529060010190602001808311610b9957829003601f168201915b505050505081565b6000610bca81336110f1565b815161067e9060fc906020850190611e4e565b6001600160a01b038216331415610c365760405162461bcd60e51b815260206004820152601960248201527f4552433732313a20617070726f766520746f2063616c6c6572000000000000006044820152606401610548565b336000818152606a602090815260408083206001600160a01b03871680855290835292819020805460ff191686151590811790915590519081529192917f17307eab39ab6107e8899845ad3d59bd9653f200f220920489ca2b5937696c31910160405180910390a35050565b6000805160206125fc833981519152610cbb81336110f1565b61067e8383611370565b610ccf3383610e4f565b610ceb5760405162461bcd60e51b815260040161054890612254565b610cf784848484611445565b50505050565b6000818152606760205260409020546060906001600160a01b0316610d645760405162461bcd60e51b815260206004820152601f60248201527f55524920717565727920666f72206e6f6e6578697374656e7420746f6b656e006044820152606401610548565b60fc610d6f83611478565b604051602001610d80929190612325565b6040516020818303038152906040529050919050565b600082815260c96020526040902060010154610db281336110f1565b61067e83836111db565b60006001600160e01b03198216637965db0b60e01b148061043b575061043b82611576565b600081815260696020526040902080546001600160a01b0319166001600160a01b0384169081179091558190610e1682610910565b6001600160a01b03167f8c5be1e5ebec7d5bd14f71427d1e84f3dd0314c0f7b2291e5b200ac8c7c3b92560405160405180910390a45050565b6000818152606760205260408120546001600160a01b0316610ec85760405162461bcd60e51b815260206004820152602c60248201527f4552433732313a206f70657261746f7220717565727920666f72206e6f6e657860448201526b34b9ba32b73a103a37b5b2b760a11b6064820152608401610548565b6000610ed383610910565b9050806001600160a01b0316846001600160a01b03161480610f0e5750836001600160a01b0316610f03846104d3565b6001600160a01b0316145b80610f3e57506001600160a01b038082166000908152606a602090815260408083209388168352929052205460ff165b949350505050565b826001600160a01b0316610f5982610910565b6001600160a01b031614610fc15760405162461bcd60e51b815260206004820152602960248201527f4552433732313a207472616e73666572206f6620746f6b656e2074686174206960448201526839903737ba1037bbb760b91b6064820152608401610548565b6001600160a01b0382166110235760405162461bcd60e51b8152602060048201526024808201527f4552433732313a207472616e7366657220746f20746865207a65726f206164646044820152637265737360e01b6064820152608401610548565b61102e83838361159b565b611039600082610de1565b6001600160a01b0383166000908152606860205260408120805460019290611062908490612406565b90915550506001600160a01b038216600090815260686020526040812080546001929061109090849061241d565b909155505060008181526067602052604080822080546001600160a01b0319166001600160a01b0386811691821790925591518493918716917fddf252ad1be2c89b69c2b068fc378daa952ba7f163c4a11628f55a4df523b3ef91a4505050565b6110fb8282610af6565b6107ea57611113816001600160a01b03166014611600565b61111e836020611600565b60405160200161112f929190612435565b60408051601f198184030181529082905262461bcd60e51b825261054891600401611f72565b61115f8282610af6565b6107ea57600082815260c9602090815260408083206001600160a01b03851684529091529020805460ff191660011790556111973390565b6001600160a01b0316816001600160a01b0316837f2f8788117e7eff1d82e926ec794901d17c78024a50270940304540a733656f0d60405160405180910390a45050565b6111e58282610af6565b156107ea57600082815260c9602090815260408083206001600160a01b0385168085529252808320805460ff1916905551339285917ff6391f5c32d9c69d2a47ea670b442974b53935d1edc7fd64eb21e047a839171b9190a45050565b6107ea8282604051806020016040528060008152506117a3565b600054610100900460ff1680611275575060005460ff16155b6112915760405162461bcd60e51b8152600401610548906122bb565b600054610100900460ff161580156112b3576000805461ffff19166101011790555b6112bb6117d6565b6112c36117d6565b6112cd8383611840565b801561067e576000805461ff0019169055505050565b600054610100900460ff16806112fc575060005460ff16155b6113185760405162461bcd60e51b8152600401610548906122bb565b600054610100900460ff1615801561133a576000805461ffff19166101011790555b6113426117d6565b61134a6117d6565b6113526117d6565b8015610af3576000805461ff001916905550565b6107ea8282611155565b600081116113b35760405162461bcd60e51b815260206004820152601060248201526f06e6674732063616e6e6f7420626520360841b6044820152606401610548565b60fb54816113c060995490565b6113ca919061241d565b11156114115760405162461bcd60e51b815260206004820152601660248201527545786365656473206d6178546f74616c537570706c7960501b6044820152606401610548565b60005b8181101561067e5760006114266118d5565b90506114328482611242565b508061143d816124aa565b915050611414565b611450848484610f46565b61145c8484848461196a565b610cf75760405162461bcd60e51b8152600401610548906124c5565b60608161149c5750506040805180820190915260018152600360fc1b602082015290565b8160005b81156114c657806114b0816124aa565b91506114bf9050600a8361252d565b91506114a0565b60008167ffffffffffffffff8111156114e1576114e1612062565b6040519080825280601f01601f19166020018201604052801561150b576020820181803683370190505b5090505b8415610f3e57611520600183612406565b915061152d600a86612541565b61153890603061241d565b60f81b81838151811061154d5761154d6122a5565b60200101906001600160f81b031916908160001a90535061156f600a8661252d565b945061150f565b60006001600160e01b0319821663780e9d6360e01b148061043b575061043b82611a68565b6001600160a01b0383166115f55760fb54609954106115f55760405162461bcd60e51b815260206004820152601660248201527545786365656473206d6178546f74616c537570706c7960501b6044820152606401610548565b61067e838383611ab8565b6060600061160f836002612555565b61161a90600261241d565b67ffffffffffffffff81111561163257611632612062565b6040519080825280601f01601f19166020018201604052801561165c576020820181803683370190505b509050600360fc1b81600081518110611677576116776122a5565b60200101906001600160f81b031916908160001a905350600f60fb1b816001815181106116a6576116a66122a5565b60200101906001600160f81b031916908160001a90535060006116ca846002612555565b6116d590600161241d565b90505b600181111561174d576f181899199a1a9b1b9c1cb0b131b232b360811b85600f1660108110611709576117096122a5565b1a60f81b82828151811061171f5761171f6122a5565b60200101906001600160f81b031916908160001a90535060049490941c9361174681612574565b90506116d8565b50831561179c5760405162461bcd60e51b815260206004820181905260248201527f537472696e67733a20686578206c656e67746820696e73756666696369656e746044820152606401610548565b9392505050565b6117ad8383611b70565b6117ba600084848461196a565b61067e5760405162461bcd60e51b8152600401610548906124c5565b600054610100900460ff16806117ef575060005460ff16155b61180b5760405162461bcd60e51b8152600401610548906122bb565b600054610100900460ff16158015611352576000805461ffff19166101011790558015610af3576000805461ff001916905550565b600054610100900460ff1680611859575060005460ff16155b6118755760405162461bcd60e51b8152600401610548906122bb565b600054610100900460ff16158015611897576000805461ffff19166101011790555b82516118aa906065906020860190611e4e565b5081516118be906066906020850190611e4e565b50801561067e576000805461ff0019169055505050565b60008060fb54425a6118e8600143612406565b6040805160208101949094528301919091524060608201526080016040516020818303038152906040528051906020012060001c6119269190612541565b90505b6000818152606760205260409020546001600160a01b0316156119655761195160018261241d565b905060fb548110611960575060005b611929565b919050565b60006001600160a01b0384163b15611a5d57604051630a85bd0160e11b81526001600160a01b0385169063150b7a02906119ae90339089908890889060040161258b565b6020604051808303816000875af19250505080156119e9575060408051601f3d908101601f191682019092526119e6918101906125c8565b60015b611a43573d808015611a17576040519150601f19603f3d011682016040523d82523d6000602084013e611a1c565b606091505b508051611a3b5760405162461bcd60e51b8152600401610548906124c5565b805181602001fd5b6001600160e01b031916630a85bd0160e11b149050610f3e565b506001949350505050565b60006001600160e01b031982166380ac58cd60e01b1480611a9957506001600160e01b03198216635b5e139f60e01b145b8061043b57506301ffc9a760e01b6001600160e01b031983161461043b565b6001600160a01b038316611b1357611b0e81609980546000838152609a60205260408120829055600182018355919091527f72a152ddfb8e864297c917af52ea6c1c68aead0fee1a62673fcc7e0c94979d000155565b611b36565b816001600160a01b0316836001600160a01b031614611b3657611b368382611cbe565b6001600160a01b038216611b4d5761067e81611d5b565b826001600160a01b0316826001600160a01b03161461067e5761067e8282611e0a565b6001600160a01b038216611bc65760405162461bcd60e51b815260206004820181905260248201527f4552433732313a206d696e7420746f20746865207a65726f20616464726573736044820152606401610548565b6000818152606760205260409020546001600160a01b031615611c2b5760405162461bcd60e51b815260206004820152601c60248201527f4552433732313a20746f6b656e20616c7265616479206d696e746564000000006044820152606401610548565b611c376000838361159b565b6001600160a01b0382166000908152606860205260408120805460019290611c6090849061241d565b909155505060008181526067602052604080822080546001600160a01b0319166001600160a01b03861690811790915590518392907fddf252ad1be2c89b69c2b068fc378daa952ba7f163c4a11628f55a4df523b3ef908290a45050565b60006001611ccb84610987565b611cd59190612406565b600083815260986020526040902054909150808214611d28576001600160a01b03841660009081526097602090815260408083208584528252808320548484528184208190558352609890915290208190555b5060009182526098602090815260408084208490556001600160a01b039094168352609781528383209183525290812055565b609954600090611d6d90600190612406565b6000838152609a602052604081205460998054939450909284908110611d9557611d956122a5565b906000526020600020015490508060998381548110611db657611db66122a5565b6000918252602080832090910192909255828152609a90915260408082208490558582528120556099805480611dee57611dee6125e5565b6001900381819060005260206000200160009055905550505050565b6000611e1583610987565b6001600160a01b039093166000908152609760209081526040808320868452825280832085905593825260989052919091209190915550565b828054611e5a90612219565b90600052602060002090601f016020900481019282611e7c5760008555611ec2565b82601f10611e9557805160ff1916838001178555611ec2565b82800160010185558215611ec2579182015b82811115611ec2578251825591602001919060010190611ea7565b50611ece929150611ed2565b5090565b5b80821115611ece5760008155600101611ed3565b6001600160e01b031981168114610af357600080fd5b600060208284031215611f0f57600080fd5b813561179c81611ee7565b60005b83811015611f35578181015183820152602001611f1d565b83811115610cf75750506000910152565b60008151808452611f5e816020860160208601611f1a565b601f01601f19169290920160200192915050565b60208152600061179c6020830184611f46565b600060208284031215611f9757600080fd5b5035919050565b80356001600160a01b038116811461196557600080fd5b60008060408385031215611fc857600080fd5b611fd183611f9e565b946020939093013593505050565b600080600060608486031215611ff457600080fd5b611ffd84611f9e565b925061200b60208501611f9e565b9150604084013590509250925092565b6000806040838503121561202e57600080fd5b8235915061203e60208401611f9e565b90509250929050565b60006020828403121561205957600080fd5b61179c82611f9e565b634e487b7160e01b600052604160045260246000fd5b600067ffffffffffffffff8084111561209357612093612062565b604051601f8501601f19908116603f011681019082821181831017156120bb576120bb612062565b816040528093508581528686860111156120d457600080fd5b858560208301376000602087830101525050509392505050565b60006020828403121561210057600080fd5b813567ffffffffffffffff81111561211757600080fd5b8201601f8101841361212857600080fd5b610f3e84823560208401612078565b6000806040838503121561214a57600080fd5b61215383611f9e565b91506020830135801515811461216857600080fd5b809150509250929050565b6000806000806080858703121561218957600080fd5b61219285611f9e565b93506121a060208601611f9e565b925060408501359150606085013567ffffffffffffffff8111156121c357600080fd5b8501601f810187136121d457600080fd5b6121e387823560208401612078565b91505092959194509250565b6000806040838503121561220257600080fd5b61220b83611f9e565b915061203e60208401611f9e565b600181811c9082168061222d57607f821691505b6020821081141561224e57634e487b7160e01b600052602260045260246000fd5b50919050565b60208082526031908201527f4552433732313a207472616e736665722063616c6c6572206973206e6f74206f6040820152701ddb995c881b9bdc88185c1c1c9bdd9959607a1b606082015260800190565b634e487b7160e01b600052603260045260246000fd5b6020808252602e908201527f496e697469616c697a61626c653a20636f6e747261637420697320616c72656160408201526d191e481a5b9a5d1a585b1a5e995960921b606082015260800190565b6000815161231b818560208601611f1a565b9290920192915050565b600080845481600182811c91508083168061234157607f831692505b602080841082141561236157634e487b7160e01b86526022600452602486fd5b8180156123755760018114612386576123b3565b60ff198616895284890196506123b3565b60008b81526020902060005b868110156123ab5781548b820152908501908301612392565b505084890196505b5050505050506123e76123d66123d083602f60f81b815260010190565b86612309565b64173539b7b760d91b815260050190565b95945050505050565b634e487b7160e01b600052601160045260246000fd5b600082821015612418576124186123f0565b500390565b60008219821115612430576124306123f0565b500190565b7f416363657373436f6e74726f6c3a206163636f756e742000000000000000000081526000835161246d816017850160208801611f1a565b7001034b99036b4b9b9b4b733903937b6329607d1b601791840191820152835161249e816028840160208801611f1a565b01602801949350505050565b60006000198214156124be576124be6123f0565b5060010190565b60208082526032908201527f4552433732313a207472616e7366657220746f206e6f6e20455243373231526560408201527131b2b4bb32b91034b6b83632b6b2b73a32b960711b606082015260800190565b634e487b7160e01b600052601260045260246000fd5b60008261253c5761253c612517565b500490565b60008261255057612550612517565b500690565b600081600019048311821515161561256f5761256f6123f0565b500290565b600081612583576125836123f0565b506000190190565b6001600160a01b03858116825284166020820152604081018390526080606082018190526000906125be90830184611f46565b9695505050505050565b6000602082840312156125da57600080fd5b815161179c81611ee7565b634e487b7160e01b600052603160045260246000fdfe9f2df0fed2c77648de5860a4cc508cd0818c85b8b8a1ab4ceeef8d981c8956a6a264697066735822122084e17fc64f581576b65975f65e1ec90ad2898611e40085d226717f2df4083b5764736f6c634300080a0033",
  "devdoc": {
    "author": "Plines team*",
    "kind": "dev",
    "methods": {
      "approve(address,uint256)": {
        "details": "See {IERC721-approve}."
      },
      "balanceOf(address)": {
        "details": "See {IERC721-balanceOf}."
      },
      "getApproved(uint256)": {
        "details": "See {IERC721-getApproved}."
      },
      "getRoleAdmin(bytes32)": {
        "details": "Returns the admin role that controls `role`. See {grantRole} and {revokeRole}. To change a role's admin, use {_setRoleAdmin}."
      },
      "grantRole(bytes32,address)": {
        "details": "Grants `role` to `account`. If `account` had not been already granted `role`, emits a {RoleGranted} event. Requirements: - the caller must have ``role``'s admin role."
      },
      "hasRole(bytes32,address)": {
        "details": "Returns `true` if `account` has been granted `role`."
      },
      "isApprovedForAll(address,address)": {
        "details": "See {IERC721-isApprovedForAll}."
      },
      "mint(address,uint256)": {
        "details": "Mints a specific token (with known id) to the given address",
        "params": {
          "mintIndex": "the tokenId to mint",
          "to": "the receiver"
        }
      },
      "mintMultiple(address,uint256)": {
        "details": "Public method to randomly mint desired number of NFTs",
        "params": {
          "nfts": "the number of tokens to be minted",
          "to": "the receiver"
        }
      },
      "name()": {
        "details": "See {IERC721Metadata-name}."
      },
      "ownerOf(uint256)": {
        "details": "See {IERC721-ownerOf}."
      },
      "renounceRole(bytes32,address)": {
        "details": "Revokes `role` from the calling account. Roles are often managed via {grantRole} and {revokeRole}: this function's purpose is to provide a mechanism for accounts to lose their privileges if they are compromised (such as when a trusted device is misplaced). If the calling account had been granted `role`, emits a {RoleRevoked} event. Requirements: - the caller must be `account`."
      },
      "revokeRole(bytes32,address)": {
        "details": "Revokes `role` from `account`. If `account` had been granted `role`, emits a {RoleRevoked} event. Requirements: - the caller must have ``role``'s admin role."
      },
      "safeTransferFrom(address,address,uint256)": {
        "details": "See {IERC721-safeTransferFrom}."
      },
      "safeTransferFrom(address,address,uint256,bytes)": {
        "details": "See {IERC721-safeTransferFrom}."
      },
      "setApprovalForAll(address,bool)": {
        "details": "See {IERC721-setApprovalForAll}."
      },
      "setBaseUri(string)": {
        "details": "Set baseUri of token JSON files",
        "params": {
          "uri": "new URI (ipfs://DAG)"
        }
      },
      "supportsInterface(bytes4)": {
        "details": "See {IERC165-supportsInterface}."
      },
      "symbol()": {
        "details": "See {IERC721Metadata-symbol}."
      },
      "tokenByIndex(uint256)": {
        "details": "See {IERC721Enumerable-tokenByIndex}."
      },
      "tokenOfOwnerByIndex(address,uint256)": {
        "details": "See {IERC721Enumerable-tokenOfOwnerByIndex}."
      },
      "tokenURI(uint256)": {
        "details": "IPFS address that stores JSON with token attributes",
        "params": {
          "tokenId": "id of the token"
        },
        "returns": {
          "_0": "address of json file `ipfs://<baseUri>/<tokenId>.json`"
        }
      },
      "totalSupply()": {
        "details": "See {IERC721Enumerable-totalSupply}."
      },
      "transferFrom(address,address,uint256)": {
        "details": "See {IERC721-transferFrom}."
      }
    },
    "title": "Plines",
    "version": 1
  },
  "userdoc": {
    "kind": "user",
    "methods": {},
    "version": 1
  },
  "storageLayout": {
    "storage": [
      {
        "astId": 413,
        "contract": "contracts/Plines.sol:Plines",
        "label": "_initialized",
        "offset": 0,
        "slot": "0",
        "type": "t_bool"
      },
      {
        "astId": 416,
        "contract": "contracts/Plines.sol:Plines",
        "label": "_initializing",
        "offset": 1,
        "slot": "0",
        "type": "t_bool"
      },
      {
        "astId": 2145,
        "contract": "contracts/Plines.sol:Plines",
        "label": "__gap",
        "offset": 0,
        "slot": "1",
        "type": "t_array(t_uint256)50_storage"
      },
      {
        "astId": 2394,
        "contract": "contracts/Plines.sol:Plines",
        "label": "__gap",
        "offset": 0,
        "slot": "51",
        "type": "t_array(t_uint256)50_storage"
      },
      {
        "astId": 482,
        "contract": "contracts/Plines.sol:Plines",
        "label": "_name",
        "offset": 0,
        "slot": "101",
        "type": "t_string_storage"
      },
      {
        "astId": 484,
        "contract": "contracts/Plines.sol:Plines",
        "label": "_symbol",
        "offset": 0,
        "slot": "102",
        "type": "t_string_storage"
      },
      {
        "astId": 488,
        "contract": "contracts/Plines.sol:Plines",
        "label": "_owners",
        "offset": 0,
        "slot": "103",
        "type": "t_mapping(t_uint256,t_address)"
      },
      {
        "astId": 492,
        "contract": "contracts/Plines.sol:Plines",
        "label": "_balances",
        "offset": 0,
        "slot": "104",
        "type": "t_mapping(t_address,t_uint256)"
      },
      {
        "astId": 496,
        "contract": "contracts/Plines.sol:Plines",
        "label": "_tokenApprovals",
        "offset": 0,
        "slot": "105",
        "type": "t_mapping(t_uint256,t_address)"
      },
      {
        "astId": 502,
        "contract": "contracts/Plines.sol:Plines",
        "label": "_operatorApprovals",
        "offset": 0,
        "slot": "106",
        "type": "t_mapping(t_address,t_mapping(t_address,t_bool))"
      },
      {
        "astId": 1298,
        "contract": "contracts/Plines.sol:Plines",
        "label": "__gap",
        "offset": 0,
        "slot": "107",
        "type": "t_array(t_uint256)44_storage"
      },
      {
        "astId": 1472,
        "contract": "contracts/Plines.sol:Plines",
        "label": "_ownedTokens",
        "offset": 0,
        "slot": "151",
        "type": "t_mapping(t_address,t_mapping(t_uint256,t_uint256))"
      },
      {
        "astId": 1476,
        "contract": "contracts/Plines.sol:Plines",
        "label": "_ownedTokensIndex",
        "offset": 0,
        "slot": "152",
        "type": "t_mapping(t_uint256,t_uint256)"
      },
      {
        "astId": 1479,
        "contract": "contracts/Plines.sol:Plines",
        "label": "_allTokens",
        "offset": 0,
        "slot": "153",
        "type": "t_array(t_uint256)dyn_storage"
      },
      {
        "astId": 1483,
        "contract": "contracts/Plines.sol:Plines",
        "label": "_allTokensIndex",
        "offset": 0,
        "slot": "154",
        "type": "t_mapping(t_uint256,t_uint256)"
      },
      {
        "astId": 1798,
        "contract": "contracts/Plines.sol:Plines",
        "label": "__gap",
        "offset": 0,
        "slot": "155",
        "type": "t_array(t_uint256)46_storage"
      },
      {
        "astId": 48,
        "contract": "contracts/Plines.sol:Plines",
        "label": "_roles",
        "offset": 0,
        "slot": "201",
        "type": "t_mapping(t_bytes32,t_struct(RoleData)43_storage)"
      },
      {
        "astId": 333,
        "contract": "contracts/Plines.sol:Plines",
        "label": "__gap",
        "offset": 0,
        "slot": "202",
        "type": "t_array(t_uint256)49_storage"
      },
      {
        "astId": 2627,
        "contract": "contracts/Plines.sol:Plines",
        "label": "maxTotalSupply",
        "offset": 0,
        "slot": "251",
        "type": "t_uint256"
      },
      {
        "astId": 2629,
        "contract": "contracts/Plines.sol:Plines",
        "label": "baseUri",
        "offset": 0,
        "slot": "252",
        "type": "t_string_storage"
      }
    ],
    "types": {
      "t_address": {
        "encoding": "inplace",
        "label": "address",
        "numberOfBytes": "20"
      },
      "t_array(t_uint256)44_storage": {
        "base": "t_uint256",
        "encoding": "inplace",
        "label": "uint256[44]",
        "numberOfBytes": "1408"
      },
      "t_array(t_uint256)46_storage": {
        "base": "t_uint256",
        "encoding": "inplace",
        "label": "uint256[46]",
        "numberOfBytes": "1472"
      },
      "t_array(t_uint256)49_storage": {
        "base": "t_uint256",
        "encoding": "inplace",
        "label": "uint256[49]",
        "numberOfBytes": "1568"
      },
      "t_array(t_uint256)50_storage": {
        "base": "t_uint256",
        "encoding": "inplace",
        "label": "uint256[50]",
        "numberOfBytes": "1600"
      },
      "t_array(t_uint256)dyn_storage": {
        "base": "t_uint256",
        "encoding": "dynamic_array",
        "label": "uint256[]",
        "numberOfBytes": "32"
      },
      "t_bool": {
        "encoding": "inplace",
        "label": "bool",
        "numberOfBytes": "1"
      },
      "t_bytes32": {
        "encoding": "inplace",
        "label": "bytes32",
        "numberOfBytes": "32"
      },
      "t_mapping(t_address,t_bool)": {
        "encoding": "mapping",
        "key": "t_address",
        "label": "mapping(address => bool)",
        "numberOfBytes": "32",
        "value": "t_bool"
      },
      "t_mapping(t_address,t_mapping(t_address,t_bool))": {
        "encoding": "mapping",
        "key": "t_address",
        "label": "mapping(address => mapping(address => bool))",
        "numberOfBytes": "32",
        "value": "t_mapping(t_address,t_bool)"
      },
      "t_mapping(t_address,t_mapping(t_uint256,t_uint256))": {
        "encoding": "mapping",
        "key": "t_address",
        "label": "mapping(address => mapping(uint256 => uint256))",
        "numberOfBytes": "32",
        "value": "t_mapping(t_uint256,t_uint256)"
      },
      "t_mapping(t_address,t_uint256)": {
        "encoding": "mapping",
        "key": "t_address",
        "label": "mapping(address => uint256)",
        "numberOfBytes": "32",
        "value": "t_uint256"
      },
      "t_mapping(t_bytes32,t_struct(RoleData)43_storage)": {
        "encoding": "mapping",
        "key": "t_bytes32",
        "label": "mapping(bytes32 => struct AccessControlUpgradeable.RoleData)",
        "numberOfBytes": "32",
        "value": "t_struct(RoleData)43_storage"
      },
      "t_mapping(t_uint256,t_address)": {
        "encoding": "mapping",
        "key": "t_uint256",
        "label": "mapping(uint256 => address)",
        "numberOfBytes": "32",
        "value": "t_address"
      },
      "t_mapping(t_uint256,t_uint256)": {
        "encoding": "mapping",
        "key": "t_uint256",
        "label": "mapping(uint256 => uint256)",
        "numberOfBytes": "32",
        "value": "t_uint256"
      },
      "t_string_storage": {
        "encoding": "bytes",
        "label": "string",
        "numberOfBytes": "32"
      },
      "t_struct(RoleData)43_storage": {
        "encoding": "inplace",
        "label": "struct AccessControlUpgradeable.RoleData",
        "members": [
          {
            "astId": 40,
            "contract": "contracts/Plines.sol:Plines",
            "label": "members",
            "offset": 0,
            "slot": "0",
            "type": "t_mapping(t_address,t_bool)"
          },
          {
            "astId": 42,
            "contract": "contracts/Plines.sol:Plines",
            "label": "adminRole",
            "offset": 0,
            "slot": "1",
            "type": "t_bytes32"
          }
        ],
        "numberOfBytes": "64"
      },
      "t_uint256": {
        "encoding": "inplace",
        "label": "uint256",
        "numberOfBytes": "32"
      }
    }
  }
}